:10000000803166280000203085000230840000081E
:10001000031918280530F800F701F70B0D28F80B25
:100020000C282E30F700F70B13281628800B0A280F
:1000300080317B2821000F1222000F120830F800B7
:1000400021280000F8173428F8132000A10C220002
:1000500003180F16031C0F12781734287813F80BA7
:100060002528322800000F1684308400840B36289F
:100070000000F81B2428781B2E28803120008028BF
:1000800021008F1620008F1A43280830F700A101A5
:10009000F7175828F713582803108F1A0314A10CC8
:1000A000771758287713F70B4C282108F800642895
:1000B0008430F71B2430F800F80B5C285F28F71B0E
:1000C0004A28771B52284C288031832821000F12A0
:1000D00022000F162000A00123008C018D018E014B
:1000E0008F01900122009201910108302000A100AF
:1000F000FA30A2000328A10B78285430A1001A2856
:100100008F1A8D2840287808A0002008613C031D24
:0E0110008D2821008D1220008D16802863009E
:020000040001F9
:04000E00C239FF1ED6
:00000001FF
;PIC16F1789
;CRC=422F  CREATED="07-Mar-21 16:32"
