:100000000C942F010C9443010C9443010C94430174
:100010000C9443010C9443010C9443010C94430150
:100020000C9443010C9443010C9443010C94430140
:100030000C9443010C9443010C9443010C94430130
:100040000C9443010C9443010C9443010C94430120
:100050000C9443010C9443010C9443010C946401EF
:100060000C9443010C9443010C9443010C94430100
:100070000C9443010C9443010C9443010C944301F0
:100080000C9443010C9443010C9443010C944301E0
:100090000C9443010C9443010C9443010C944301D0
:1000A0000C9443010C9443010C9443010C944301C0
:1000B0000C9443010C9443010C9443010C944301B0
:1000C0000C9443010C9443010C9443010C944301A0
:1000D0000C9443010C9443010C9443010C94430190
:1000E0000C9443010C9476020C9496020C94A40296
:1000F0000C948E020C9484020C94A0020C94B20214
:100100000C94AE020C94AA020C94B6020C947E02DB
:100110000C9488020C949C020C9470020C947A0249
:100120000C9492020C94B50200000B0C030A0D0E05
:100130000F09080405020000000000000000000094
:1001400000000000000000000000000000000000AF
:100150000000000013121100000000000000000069
:10016000000000000000000000000000000000008F
:10017000000000000000000000000000000001027C
:1001800010202008081020401020408002010201A9
:100190000804020101020408102040808040201061
:1001A00008040201800402018040201008040201BA
:1001B0000804020101020408102040800102040822
:1001C0001020408004408004800810102040040863
:1001D00010204080050505050705080808080202EB
:1001E00002020A0A080804040404010101010101D1
:1001F00001010303030303030303040707070C0CB4
:100200000C0C0C0C0C0C020202020606060606067A
:1002100006060B0B0B0B0B0B0B0B05050508080754
:10022000070404040A0A0A0A0A0A00002200250038
:1002300028002B002E0031003400020100000501CF
:1002400008010B0100002100240027002A002D00D6
:100250003000330001010000040107010A011124EC
:100260001FBECFEFD1E2DEBFCDBF00E00CBF22E06A
:10027000A0E0B2E001C01D92A930B207E1F70E94F0
:1002800024030C943C030C940000F894E1E6F0E0A5
:1002900080E880831082789461E080E10C94B90258
:1002A00061E080E10E94F50264EF71E080E090E09F
:1002B0000E94D30160E080E10E94F50264EF71E0EA
:1002C00080E090E00C94D3011F920F920FB60F9232
:1002D00011242F933F938F939F93AF93BF9380915C
:1002E000050290910602A0910702B0910802309198
:1002F000040226E0230F2D3768F129E8230F039627
:10030000A11DB11D20930402809305029093060263
:10031000A0930702B093080280910002909101021D
:10032000A0910202B09103020196A11DB11D80931C
:10033000000290930102A0930202B0930302BF91C6
:10034000AF919F918F913F912F910F900FBE0F9082
:100350001F9018950296A11DB11DD4CF3FB7F894F8
:100360008091000290910102A0910202B0910302DB
:1003700026B5A89B05C02F3F19F00196A11DB11D00
:100380003FBFBA2FA92F982F8827BC01CD01620F3C
:10039000711D811D911D43E0660F771F881F991FF6
:1003A0004A95D1F708958F929F92AF92BF92CF92C4
:1003B000DF92EF92FF926B017C010E94AE014B0134
:1003C0005C01C114D104E104F104E9F00E9433039B
:1003D0000E94AE01681979098A099B09683E734039
:1003E0008105910570F321E0C21AD108E108F108F6
:1003F00088EE880E83E0981EA11CB11CC114D104A4
:10040000E104F10429F7FF90EF90DF90CF90BF90C7
:10041000AF909F908F900895789484B5836084BD49
:1004200085B5836085BDEEE6F0E0808181608083E4
:10043000E1E8F0E082E08083808181608083E0E811
:10044000F0E0808181608083E1EBF0E08081846076
:100450008083E0EBF0E0808181608083E1E9F0E07F
:10046000808183608083E0E9F0E080818160808327
:10047000E1EAF0E0808183608083E0EAF0E080815F
:1004800081608083E1E2F1E0808183608083E0E24B
:10049000F1E080818160808386E880937A00109209
:1004A000C10008958250823108F05FC0E82FF0E06B
:1004B0008827E25AFD4F8F4F0C943403B202B602E4
:1004C000700276027A02B5027E02840288028E02EF
:1004D000920296029C02A002B502A402AA02AE02F7
:1004E000809180008F7780938000089580918000B4
:1004F0008F7DF9CF80918000877FF5CF8091B0000C
:100500008F778093B00008958091B0008F7DF9CFF0
:10051000809190008F778093900008958091900053
:100520008F7DF9CF80919000877FF5CF8091A000DB
:100530008F778093A00008958091A0008F7DF9CFE0
:100540008091A000877FF5CF809120018F778093E5
:1005500020010895809120018F7DF9CF80912001A5
:10056000877FF5CF84B58F7784BD089584B58F7D5F
:10057000FBCFCF93DF9390E0FC01E258FE4F249134
:100580008C529E4FFC0184918823C9F090E0880F23
:10059000991FFC01EC5BFD4FA591B491FC01E65D58
:1005A000FD4FC591D49161110DC09FB7F8948C9106
:1005B000209582238C938881282328839FBFDF91F5
:1005C000CF910895623051F49FB7F8943C91822FF7
:1005D000809583238C93E8812E2BEFCF8FB7F894EF
:1005E000EC912E2B2C938FBFEACF1F93CF93DF93E9
:1005F000282F30E0F901E85DFE4F8491F901E258BF
:10060000FE4FD491F901EC52FE4FC491CC23A9F0D6
:10061000162F81110E945202EC2FF0E0EE0FFF1F07
:10062000E65DFD4FA591B4918FB7F894EC9111114F
:1006300008C0D095DE23DC938FBFDF91CF911F914F
:100640000895DE2BF8CF08950E940C020E94230328
:100650000E944501C0E0D0E00E9450012097E1F3E4
:100660000E940000F9CF0895EE0FFF1F881F8BBF77
:0C0670000790F691E02D1994F894FFCF4C
:00000001FF
